:020000040800F2
:1000000000090020011F00082D1100082F11000811
:1000100033110008371100083B11000800000000F0
:100020000000000000000000000000003F11000878
:1000300041110008000000004311000845110008AC
:100040001B1F00081B1F00081B1F00081B1F0008A8
:100050001B1F00081B1F00081B1F00081B1F000898
:100060001B1F00081B1F00081B1F00081B1F000888
:100070001B1F00081B1F00081B1F00081B1F000878
:100080001B1F00081B1F00081B1F00081B1F000868
:100090001B1F00081B1F00081B1F00081B1F000858
:1000A0001B1F00081B1F00081B1F00081B1F000848
:1000B0004D170008951A0008351700081B1F000887
:1000C0001B1F00081B1F00081B1F00081B1F000828
:1000D0001B1F0008771E00081B1F0008191C0008C2
:1000E0001B1F00081B1F00081B1F00081B1F000808
:1000F0001B1F00081B1F00081B1F00081B1F0008F8
:100100001B1F00081B1F00081B1F00081B1F0008E7
:100110001B1F00081B1F00081B1F00081B1F0008D7
:100120001B1F00081B1F00081B1F00081B1F0008C7
:1001300000F002F800F03FF80AA090E8000C8244BA
:100140008344AAF10107DA4501D100F034F8AFF297
:10015000090EBAE80F0013F0010F18BFFB1A43F0A5
:1001600001031847303F0000503F0000103A24BF01
:1001700078C878C1FAD8520724BF30C830C144BF0C
:1001800004680C607047000000230024002500264E
:10019000103A28BF78C1FBD8520728BF30C148BFEA
:1001A0000B607047642903F00D84002070471FB571
:1001B0001FBD10B510BD03F0CDFC1146FFF7F7FFD2
:1001C00000F038FD03F0EBFC03B4FFF7F2FF03BCD3
:1001D00001F0F6FDFE4B18801B1D19800122FD4B1E
:1001E0001A600022FC4BC3F8BC21FA4B1B1F1A609B
:1001F0000122F94BC3F8B0217047F54B18801B1D45
:1002000019800022F34B1A600122F34BC3F8BC2182
:10021000F04B1B1F1A600022EF4BC3F8B021704750
:1002200010B50020EB490860EB49C1F8BC01E94971
:10023000091F0860E849C1F8B00101F09BFA01F01C
:10024000ACFA10BDE24B18801B1D19800022E14B57
:100250001A60E14BC3F8BC21DE4B1B1F1A60012260
:10026000DD4BC3F8B0217047D94B18801B1D198096
:100270000122D84B1A600022D74BC3F8BC21D54BC2
:100280001B1F1A60D44BC3F8B0217047D04B1880A5
:100290001B1D19800122CF4B1A600022CE4BC3F8E0
:1002A000BC210122CB4B1B1F1A600022CA4BC3F892
:1002B000B021704770B5C948C9490860C94908608C
:1002C000022001F012FA4042C7490860042001F000
:1002D0000CFAC64908600221C54802F032FE012826
:1002E00005D1BE48BE490860BE49086036E04FF4FB
:1002F0000061BF4802F025FE012811D14FF07E5168
:10030000B848006803F056FCB6490860B949B548DA
:10031000006803F0F1FD21D2B648B24908601DE043
:100320004FF48051B24802F00CFE012811D14FF079
:100330007E51AB48006803F03DFCA9490860AD4917
:10034000A748006803F0D8FD08D2AA48A44908606D
:1003500004E0A248A2490860A2490860A2480068D7
:1003600003F0B2FC06469E480168304603F0F5FDF6
:10037000054601F025FA044603F08AFC9E49086010
:100380009A48006803F0A0FC06469648016830468B
:1003900003F0E3FD054601F078FA044603F078FC2B
:1003A00096490860084602689348016894A003F0E3
:1003B000C9FA9248016890480068FFF70BFF0320D4
:1003C00001F0D1FC70BD2DE9F041FFF729FF0024B9
:1003D00027E0022001F089F940428349086008467D
:1003E000006803F071FC07467D480168384603F059
:1003F000B4FD064601F0E4F9054603F049FC7E49E8
:1004000008607E480268084601687DA003F09AFAF9
:10041000002179480068FFF727FF0A2001F0A3FCBC
:10042000641C322CD5DB3DE0022001F05EF9404235
:100430006D490860042001F058F96C4908606A4869
:10044000006803F041FC074665480168384603F040
:1004500084FD064601F0B4F9054603F019FC66492F
:1004600008606248006803F02FFC07465D48016899
:10047000384603F072FD064601F007FA054603F020
:1004800007FC5E490860084602685B4801685CA09A
:1004900003F058FA002158480068FFF7E5FE0120F4
:1004A00001F061FC0221524802F04BFD0028BBD054
:1004B000002427E0022001F018F940424A49086070
:1004C0000846006803F000FC0746454801683846C6
:1004D00003F043FD064601F073F9054603F0D8FB2F
:1004E00045490860454802680846016844A003F091
:1004F00029FA002140480068FFF7B6FE0A2001F003
:1005000032FC641C002CD5DBFFF78AFEBDE8F081CD
:100510002DE9F041FFF784FE00243FE0022001F0C6
:10052000E4F8404230490860042001F0DEF82F4929
:1005300008602D48006803F0C7FB0746284801689B
:10054000384603F00AFD064601F03AF9054603F085
:100550009FFB294908602548006803F0B5FB074662
:1005600020480168384603F0F8FC064601F08DF992
:10057000054603F08DFB21490860084602681E48C5
:1005800001681FA003F0DEF91C4801681A480068E2
:10059000FFF758FE0A2001F0E6FB641C322CBDDB9D
:1005A00062E0022001F0A1F840420F4908600420F7
:1005B00001F09BF80D4908600B48006803F084FBCC
:1005C000074607480168384603F0C7FC064621E0A5
:1005D00034340140B8812142008021420000404073
:1005E0000000002004000020300000203400002023
:1005F00000100140000070410C000020100000209D
:10060000534C3A2564202020202053523A25640D73
:100610000A00000001F0D4F8054603F039FBFC495C
:100620000860FC48006803F04FFB0746FA48016881
:10063000384603F092FC064601F027F9054603F020
:1006400027FBF649086008460268F1480168AFF2E6
:10065000500003F077F9F1480168ED480068FFF7B2
:10066000F1FD0A2001F07FFB0221ED4802F069FC58
:10067000002896D0002440E0022001F036F84042E5
:10068000E8490860042001F030F8E2490860E548D4
:10069000006803F019FB0746E3480168384603F099
:1006A0005CFC064601F08CF8054603F0F1FAD849E7
:1006B0000860D848006803F007FB0746D648016881
:1006C000384603F04AFC064601F0DFF8054603F021
:1006D000DFFAD249086008460268CD480168AFF2E7
:1006E000E00003F02FF9CD480168C9480068FFF722
:1006F000A9FD0A2001F037FB641C002CBCDBFFF7CE
:100700008FFDBDE8F0812DE9F041FFF789FD002460
:1007100098E04FF48061C24802F013FCD8B932204F
:1007200001F021FB4FF48061BD4802F00AFC90B952
:10073000322001F018FB4FF48061B94802F001FC4F
:1007400048B9FFF76DFD00BF4FF48061B44802F077
:10075000F8FB0028F8D0B548B3490860AE490860F6
:10076000022000F0C2FF4042AE490860042000F0C1
:10077000BCFFA84908600221A94802F0E2FB012859
:1007800005D1AA48A8490860A349086024E04FF4AD
:100790000061A34802F0D5FB012808D14FF07E513B
:1007A0009D48006803F006FA9B49086014E04FF486
:1007B00080519B4802F0C5FB012808D14FF07E51C3
:1007C0009948006803F0F6F99749086004E09748F3
:1007D00095490860904908609248006803F074FAEF
:1007E000804691480168404603F0B7FB074600F099
:1007F000E7FF064603F04CFA854908608548006823
:1008000003F062FA804684480168404603F0A5FB85
:10081000074601F03AF8064603F03AFA7F490860C5
:10082000084602687A480168AFF22C2003F08AF883
:100830007A48016876480068FFF7CCFC022001F096
:1008400092FA641CAA2CFFF664AF784876490860D7
:1008500071490860002441E0022000F046FF404258
:1008600070490860042000F040FF40426949086078
:100870006C48006803F028FA80466B4801684046DF
:1008800003F06BFB074600F09BFF064603F000FAFF
:100890005F4908605F48006803F016FA80465E48CA
:1008A0000168404603F059FB074600F0EEFF06469C
:1008B00003F0EEF959490860084602685448016897
:1008C000AFF2C42003F03EF8544801685048006875
:1008D000FFF7DCFC012001F046FA641C642CBBDB52
:1008E00040E0022000F001FF40424E490860042031
:1008F00000F0FBFE4042474908604A48006803F0A8
:10090000E3F9804648480168404603F026FB074665
:1009100000F056FF064603F0BBF93D4908603D482C
:10092000006803F0D1F980463B480168404603F077
:1009300014FB074600F0A9FF064603F0A9F9374962
:1009400008600846026832480168AFF24C3002F095
:10095000F9FF324801682E480068FFF797FC012034
:1009600001F001FA02212E4802F0EBFA0028B8D07B
:1009700000F000FF00F011FF92E02C482A490860C7
:100980002549086000F0F6FE00F007FF00252BE087
:100990006D1C022000F0A9FE404222490860084672
:1009A000006803F091F980461F480168404603F053
:1009B000D4FA074600F004FF064603F069F914492B
:1009C00008601648026808460168AFF2CC3002F0B1
:1009D000B9FF00210E480068FFF746FC012001F036
:1009E000C2F9642D00DB0CE04FF400510C4802F01A
:1009F000A8FA30B94FF40061094802F0A2FA0028C1
:100A0000C6D000BF00F0B6FE00F0C7FE00253AE0F9
:100A10000C00002034000020040000201000002002
:100A20000010014030000020000000200000404085
:100A30006D1C042000F059FEFE490860084600685D
:100A400003F042F98046FC480168404603F085FA0D
:100A5000074600F01AFF064603F01AF9F749086046
:100A600008460268F6480168AFF26C4002F06AFF7F
:100A7000F24801680020FFF7E5FB012001F073F95F
:100A8000642D00DB0BE00221EE4802F05AFA30B987
:100A90004FF48051EB4802F054FA0028C8D000BF50
:100AA0000221E84802F04DFA00283FF466AF4FF407
:100AB0000051E44802F045FA0028F6D0FFF7B0FBF9
:100AC000BDE8F08170B504460020DF490860DF49C9
:100AD000C1F89401DE490860002512E0002604E018
:100AE0004FF47A7001F03FF9761C3C2EF8DB0A20B7
:100AF00001F039F9D7A001F0D5F80A2001F033F957
:100B00006D1CA542EADB0120CF490860CF49C1F83E
:100B10009401CF49086070BD2DE9F0414FF40061A8
:100B2000C84802F00EFA01287ED10103C54802F040
:100B300008FA01287CD1002478E0C948C949086036
:100B4000BD490860022000F0D0FD4042C64908605F
:100B5000042000F0CAFDB74908600221B94802F03C
:100B6000F0F9012805D1BE48BE490860B2490860C5
:100B700024E04FF40061B34802F0E3F9012808D102
:100B80004FF07E51AC48006803F014F8AA490860A1
:100B900014E04FF48051AB4802F0D3F9012808D19A
:100BA0004FF07E51AF48006803F004F8AD4908608B
:100BB00004E0AB48AB4908609F490860AA48006858
:100BC00003F082F80746A7480168384603F0C5F9E4
:100BD000064600F0F5FD054603F05AF8984908600E
:100BE0009448006803F070F8074693480168384657
:100BF00003F0B3F9064600F048FE054603F048F856
:100C00008E490860084602688D480168AFF210609E
:100C100002F098FE8948016889480068FFF7DAFA0F
:100C2000022001F0A0F800E002E0641C142C84DB38
:100C3000BDE8F08100240025002601F057F84FF4AC
:100C4000A06002F00FFE4FF4165001F0C8F800F05B
:100C50006BFB00F0FFFB002140F2833000F0A2FBB1
:100C600000F0ACFC00F0F7FC47214FF6FF7000F0FD
:100C700095FE4FF4165000F079FF00207B49088064
:100C8000091D0880012072492C31086000206F493D
:100C9000C1F8B80101206E492431086000206B4979
:100CA000C1F8B00100F066FD00F077FD0A2001F008
:100CB0005AF868A000F0F6FF0A2001F054F84FF44B
:100CC0007A7001F050F86648664908605A49086031
:100CD0005020FFF7F7FE04E24FF48061594802F01C
:100CE00030F9D8B9322001F03EF84FF48061554810
:100CF00002F027F990B9322001F035F84FF4806105
:100D0000504802F01EF948B9FFF78AFA00BF4FF4C5
:100D100080614C4802F015F90028F8D0FFF7CAFAB4
:100D20007F1C032F0FDB002700F08FFE5049086067
:100D30000846006810B940F2DC5008604C48016871
:100D40004CA002F0FFFD4A48006878281FDC0A200A
:100D500001F009F800F079FE45490860084601688D
:100D600044A002F0EFFD4248006878280FDCFFF74E
:100D700057FA08E000F069FE3D490860084601683E
:100D80003CA002F0DFFD3A4800687828F2DD3448E4
:100D900034490860284908604FF40061294802F08E
:100DA000D0F8012817D10103264802F0CAF801281B
:100DB00011D12F480068B0F54D7F0CDA5CB9FFF710
:100DC00002FB641C0A2000F0CEFF2CA000F06AFF9A
:100DD0000A2000F0C8FF4FF400611A4802F0B1F891
:100DE000012818D10103174802F0ABF8012812D1ED
:100DF0001F480068B0F5FA7F0DDA012C0BD1FFF720
:100E000087FB641C0A2000F0AEFF1FA000F04AFF21
:100E10000A2000F0A8FF4FF400610A4802F091F8A0
:100E2000012849D10103074802F08BF8012843D17A
:100E30000F482FE0340000200400002010000020A4
:100E40000C00002000100140840122420080214259
:100E500090812142706C61792C303030312C24002B
:100E600000004040000000203000002034340140E9
:100E700008000020443A25640D0A0000706C617976
:100E80002C303030322C2400706C61792C303030B2
:100E9000332C24000068B0F52F7F0DDA022C0BD123
:100EA000FFF791FA641C0A2000F05DFF8DA000F0AE
:100EB000F9FE0A2000F057FF4FF400618C4802F061
:100EC00040F801281AD10103894802F03AF80128B4
:100ED00014D1032C12D1022D03DAFFF71DFE6D1C75
:100EE0000CE00025FFF76FFA641C0A2000F03BFFBE
:100EF00080A000F0D7FE0A2000F035FF4FF400611B
:100F00007B4802F01EF8012819D10103784802F04D
:100F100018F8012813D1042C05D0062C03D00B2C73
:100F200001D00E2C0BD1FFF7F3FA641C0A2000F05D
:100F30001AFF73A000F0B6FE0A2000F014FF4FF471
:100F400000616B4801F0FDFF012817D101036848DB
:100F500001F0F7FF012811D1052C03D0072C01D097
:100F60000D2C0BD1FFF72FFA641C0A2000F0FBFEBA
:100F700066A000F097FE0A2000F0F5FE4FF4006135
:100F80005B4801F0DEFF012818D10103584801F049
:100F9000D8FF012812D160480068B0F5966F0DDACD
:100FA000082C0BD1FFF7AFFB641C0A2000F0DBFE1E
:100FB0005AA000F077FE0A2000F0D5FE4FF4006141
:100FC0004B4801F0BEFF012819D10103484801F048
:100FD000B8FF012813D150480068B0F5487F0EDAF9
:100FE000092C0CD1FFF794FA641C0A2000F0BBFE18
:100FF000AFF2A01000F056FE0A2000F0B4FE4FF44D
:1010000000613B4801F09DFF012819D101033848D8
:1010100001F097FF012813D13F480068B0F5D27F57
:101020000EDA0A2C0CD1FFF7CEF9641C0A2000F06E
:101030009AFEAFF2B81000F035FE0A2000F093FEE1
:101040004FF400612A4801F07CFF01281BD1010305
:10105000274801F076FF012815D10C2C13D1022D61
:1010600003DAFFF759FD6D1C0DE00025FFF750FA7C
:10107000641C0A2000F077FEAFF2282000F012FE78
:101080000A2000F070FE4FF40061194801F059FF8A
:10109000012826D10103164801F053FF012820D171
:1010A0001D480068B0F5966F1BDA0F2C19D1FFF7B9
:1010B0002AFB00240A2000F056FE0AA000F0F2FDF0
:1010C0000A2000F050FE0A20FFF7FCFC761C282EB8
:1010D00007DBFFF7A5F80021134802F08EFA00BFE6
:1010E000FEE7F9E5706C61792C303030342C240047
:1010F00000100140706C61792C303030352C2400A8
:10110000706C61792C303030362C2400706C617931
:101110002C303030372C240008000020706C6179AE
:101120002C303030382C240000480040704700BF7D
:10113000FEE700BFFEE700BFFEE700BFFEE7704727
:1011400070477047704700000CB500200190009078
:101150006C48006840F480306A49086000BF694804
:10116000006800F4003000900198401C0190009845
:1011700018B90198B0F5A06FF1D16248006800F489
:10118000003010B10120009001E000200090009894
:10119000012843D15C48006840F010005A490860BB
:1011A0000846006820F0030008600846006840F028
:1011B0000200086053484068524948600846406849
:1011C00048600846406840F48060486008464068CF
:1011D00020F47C1048600846406840F4E8104860FD
:1011E0000846006840F08070086000BF454800680D
:1011F00000F000700028F9D04248406820F0030059
:10120000404948600846406840F00200486000BF1E
:101210003C48406800F00C000828F9D10CBD10B51E
:10122000FFF792FF10BD10B53648006840F001008E
:1012300034490860084640683449084031494860EC
:1012400008460068324908402E4908600846006890
:1012500020F4802008600846406820F4FE004860C2
:101260004FF41F008860FFF7DAFF4FF00060294954
:10127000086010BD10B5002100200022214B5B68E2
:1012800003F00C0121B1042906D0082928D107E078
:10129000214B224C236027E01F4B204C236023E08E
:1012A000184B5B6803F47010164B5B6803F48032D4
:1012B000022303EB904022B9194B4343174C2360A0
:1012C0000DE0104B5B6803F4003323B1144B434330
:1012D000124C236003E0104B4343104C236003E0A7
:1012E0000D4B0E4C236000BF00BF064B5B68C3F381
:1012F00003130C4CE15C094B1B68CB40074C23608B
:1013000010BD000000100240002002400000FFF865
:10131000FFFFF6FE08ED00E000127A003800002022
:1013200000093D003C00002008B50121182002F012
:1013300031F83020ADF8000010208DF803000320B4
:101340008DF8020069460B4801F068FD202109482C
:1013500001F011FE1021074801F00DFE0220ADF84A
:1013600000006946044801F059FD0221024801F0DD
:1013700002FE08BD000C01400010014008B501212B
:10138000082002F007F84FF47040ADF8000010207C
:101390008DF8030003208DF8020069462A4801F009
:1013A0003DFD08BD30B589B005460C46FFF7E6FFA8
:1013B0000121480301F0EEFF0121102001F0EAFFB6
:1013C000C020ADF8200018208DF8230003208DF8F0
:1013D000220008A91D4801F021FDADF81850ADF814
:1013E00014400020ADF81A00ADF8160005A9184801
:1013F00000F07AFE6020ADF804000120ADF8060090
:101400000020ADF80A00ADF80C0001A9104800F06A
:10141000A8FE01A90E4800F0E6FE01210C4801F0EB
:10142000CBF908210A4801F0EBFA0821084801F03D
:10143000F0FA0121064801F0B3FA0121044801F055
:10144000AFF909B030BD0000000C014000100140B0
:101450000034014008B50121142001F09BFF012157
:10146000524801F0ACFD4FF40040ADF800004820B8
:101470008DF8030069464E4801F0D0FC2020ADF8FD
:10148000000048208DF8030069464A4801F0C6FC78
:101490000120ADF8000028208DF80300694644487B
:1014A00001F0BCFC4FF48060ADF8000048208DF8DE
:1014B000030069463F4801F0B1FC4FF48050ADF89D
:1014C000000048208DF8030069463A4801F0A6FC68
:1014D0004FF40060ADF8000048208DF80300694625
:1014E000344801F09BFC0220ADF8000048208DF844
:1014F000030069462F4801F091FC4FF40050ADF80D
:10150000000048208DF8030069462A4801F086FC57
:1015100008BD10B5044614B10120274908702648BB
:10152000007868B32021234801F00BFD58B14FF437
:1015300000411F4801F005FD28B101211C4801F0C0
:1015400000FD01281CD10A2000F00DFC00201A49E2
:1015500008702021174801F0F4FC08B9012010BDE3
:101560004FF40041124801F0ECFC08B90220F6E704
:1015700001210F4801F0E5FC012815D10320EEE719
:1015800020210C4801F0DDFC01280DD1C1030848E1
:1015900001F0D7FC012807D10121054801F0D1FC59
:1015A00010B90120044908700020D8E7000230007B
:1015B00000080140001001404C00002000B587B039
:1015C0000121084601F0F3FE0121042001F0E2FEB2
:1015D0000320ADF8000004208DF80300694661483F
:1015E00001F01CFC04A801F0ABF80020ADF81000DD
:1015F0004FF6FF70ADF814000020ADF81600ADF8FE
:10160000120004A94FF0804000F06EFD00231A463E
:1016100003214FF0804001F076F901A801F0A3F812
:101620000A20ADF80C0001A9400700F0F0FF0121ED
:10163000880701F07BFB01221146900701F0CBF8EF
:1016400000214FF0804001F03FFB0121880701F0AD
:10165000A7F807B000BD00B587B00121042001F054
:10166000A6FE0121082001F095FEC020ADF8000083
:1016700004208DF8030069463B4801F0CFFB04A825
:1016800001F05EF80020ADF810004FF6FF70ADF8E5
:1016900014000020ADF81600ADF8120004A933487C
:1016A00000F022FD00231A460321304801F02BF9F7
:1016B00001A801F058F80A20ADF80C0001A92B4848
:1016C00000F0A5FF0121294801F030FB012211465D
:1016D000264801F080F80021244801F0F5FA0121A4
:1016E000224801F05DF807B000BD0146022904D090
:1016F00003290BD0042919D10FE04FF08042928CBE
:1017000010B200224FF080439A8411E0184A1288E8
:1017100010B20022164B1A800AE0144A24321288B2
:1017200010B20022114B24331A8001E0002000BFC8
:1017300000BF70470D48103000880C4810300088FA
:1017400020F0010009491031088070474FF08040B7
:10175000008A4FF08040008A20F001004FF0804165
:101760000882704700080140000C0140000800405A
:10177000240400407748784908604FF08140774959
:1017800008600020764908607648774908600020A4
:1017900076498860486008607047754875490860F8
:1017A0004FF0814074490860002074490860744813
:1017B0007449086000207449886048600860704778
:1017C0002DE9F04704466948846041684FF0804045
:1017D00002F0C6FA814665488168484602F0BDFBC2
:1017E000804662480168404602F0E4F907465C48DA
:1017F0000168384602F0B4FA05465C4881685748EB
:10180000006802F0ADFA8046584A5168906802F0CC
:10181000AFFB814650480168484602F0A1FA0746EE
:10182000414602F0C7F90646294602F0C3F9574976
:1018300008604D4801685548006802F0BBF94A4904
:10184000486048685249096802F056FB03D2504884
:10185000006845494860444948684E49096802F0B3
:101860004BFA03D24B4800683F4948603E48406805
:101870003D4908603D4840683C490860084680682A
:10188000486039484068BDE8F0872DE9F0470446D4
:101890003D48846041684FF0804002F061FA814623
:1018A00039488168484602F058FB8046364801684E
:1018B000404602F07FF9074630480168384602F09A
:1018C0004FFA0546304881682B48006802F048FA14
:1018D00080462D4A5168906802F04AFB81462548AF
:1018E0000168484602F03CFA0746414602F062F9B8
:1018F0000646294602F05EF927490860214801683A
:101900002548006802F056F91E4948604868204999
:10191000096802F0F1FA03D21D48006819494860CD
:10192000184948681B49096802F0E6F903D21948CA
:10193000006814494860134840681249086012481A
:101940004068114908600846806848600D48406852
:10195000BDE8F0870000A041580000205C00002096
:10196000600000200000FA4364000020B000002066
:1019700000009041700000207400002078000020DA
:101980000000E1437C000020BC0000206C0000202F
:1019900050000020540000208400002030B585B0A5
:1019A00005460C460121022001F001FD012108201D
:1019B00001F0F0FC0120ADF8100028208DF8130094
:1019C00004A9634801F02AFA0220ADF810001020A3
:1019D0008DF8130002208DF8120004A95C4801F074
:1019E0001DFAADF80850ADF804400020ADF80A002B
:1019F000ADF8060001A9574800F076FB08205649CB
:101A0000088000204880012088800020C88008814C
:101A1000504800F0FCFD1D208DF8000002208DF8DC
:101A2000010000208DF8020001208DF803006846B7
:101A300001F01DFF01220921464800F0CCFE0121E2
:101A4000444800F0ADFE05B030BD10B5012043495B
:101A500008600F2000F063F900204149C1F88401BB
:101A60004048007800F0800090B13E48007800F0D7
:101A70003F0424043C4800880444AA2060434FF4F7
:101A80007A71B0FBF1F4002036490880204610BD81
:101A900000BFFCE72F49103108883249097801F06E
:101AA000800100294ED100F00101D1B12D49097802
:101AB00001F04001A9B12B49097801F03F013F290C
:101AC0000AD12849098841F08001264A11804FF641
:101AD000FF71254A118004E022490988491C214AE6
:101AE000118000F0080169B31E49097801F0400136
:101AF00099B11C49098841F080011A4A11801549A1
:101B00003C310988184A118012492031098821F492
:101B10000071104A2032118014E00021114A118016
:101B2000114A11800F49098841F040010D4A118086
:101B30000021084A24321180111F098841F40071E4
:101B4000121F11800021034A1032118070470000DB
:101B5000000C014000040040C800002084812142A4
:101B600000802142880000208A00002010B586B045
:101B700004460121574801F01AFC4FF48060ADF88B
:101B8000140018208DF8170003208DF8160005A901
:101B9000514801F043F94FF40060ADF814000420FF
:101BA0008DF8170005A94C4801F038F90194002080
:101BB000ADF80800ADF80A00ADF80C00ADF8100063
:101BC0000C20ADF80E0001A9444801F08AFC002267
:101BD00040F22771414801F01CFD012240F22551DD
:101BE0003E4801F016FD40213C4801F0EEFD012188
:101BF0003A4801F002FD27208DF8000001208DF801
:101C0000010008208DF8020001208DF803006846CD
:101C100001F02DFE06B010BD10B540F227712F481F
:101C200001F0DCFDE0B12E4802780078401C2C4B1E
:101C300018702C48815C294801F04CFD40F2277156
:101C4000264801F0F5FD26480078274909788842A2
:101C500011D1002240F22771204801F0DAFC0AE09D
:101C600040F225511D4801F0B9FD20B140F2255147
:101C70001A4801F0DDFD4FF45871184801F0D8FD05
:101C800010BD10B50446184801780078401C164A6B
:101C9000107014484454012240F227710F4801F09B
:101CA000B8FC10BD10B504460FE020780D2802D115
:101CB000FFF7E7FF08E020780A2802D1FFF7E1FFED
:101CC00002E02078FFF7DDFF641C20780028ECD1CB
:101CD00010BD000008000400000C01400048004056
:101CE0008C000020D20000208D00002010B56FF085
:101CF000040001F006FE2E4800682E49B0FBF1F00A
:101D00002D4908700846007800EB4001C1EBC01077
:101D10004FF6FF7101EAC0002849088010BD014656
:101D2000254A12784A434FF0E0235A6100229A6113
:101D30001A46126942F001021A6100BF4FF0E02218
:101D4000106900F001021AB100F48032002AF5D0C7
:101D50004FF0E022126922F001024FF0E0231A61F5
:101D600000229A6170470146144A12884A434FF094
:101D7000E0235A6100229A611A46126942F0010278
:101D80001A6100BF4FF0E022106900F001021AB1A1
:101D900000F48032002AF5D04FF0E022126922F0E0
:101DA00001024FF0E0231A6100229A61704700009F
:101DB0003800002000127A008E00002090000020E1
:101DC000014600BF704700BF494A128802F0400236
:101DD000002AF9D0C2B2464B1B1D1A80704710B5BD
:101DE00086B00446012144F2040001F0D3FA4FF416
:101DF0000070ADF8140003208DF8160018208DF83F
:101E0000170005A93B4801F009F84FF48060ADF8D0
:101E1000140004208DF8170005A9364800F0FEFFD5
:101E200025208DF8000003208DF801008DF80200B8
:101E300001208DF80300684601F019FD019400208F
:101E4000ADF80800ADF80A00ADF80C00ADF81000D0
:101E50000C20ADF80E0001A9254801F042FB01223B
:101E600040F22551224801F0D4FB0121204801F025
:101E7000C4FB06B010BD10B540F225511C4801F05E
:101E8000ADFC10B31A4801F029FCC4B21A4800880E
:101E900000F40040C8B91848008800F4804060B1E0
:101EA0000A2C03D000201449088020E01248008842
:101EB00040F400401049088019E00D2C06D10E486E
:101EC000008840F480400C49088010E00A480088EF
:101ED000C0F30D0009490C5407480088401C06490E
:101EE000088008460088C72801DD0020088010BD52
:101EF000003801400008014098000020D201002075
:101F00000948804709480047FEE7FEE7FEE7FEE78D
:101F1000FEE7FEE7FEE7FEE7FEE7FEE704480549C9
:101F2000054A064B704700002712000831010008DF
:101F3000000300200009002000050020000500200B
:101F400010B50446FE48844208D10121C01401F0B6
:101F50003BFA0021E01401F037FAC4E0B4F1804FFD
:101F600008D10121084601F03CFA0021012001F0CE
:101F700038FAB8E0F348844208D10121022001F088
:101F800030FA0021022001F02CFAACE0EE48844245
:101F900008D10121042001F024FA0021042001F0DD
:101FA00020FAA0E0E948844208D10121082001F08C
:101FB00018FA0021082001F014FA94E0E448844261
:101FC00008D10121102001F00CFA0021102001F0AD
:101FD00008FA88E0DF48844208D10121202001F07E
:101FE00000FA0021202001F0FCF97CE0DA4884426C
:101FF00008D10121401401F0E7F90021601401F03B
:10200000E3F970E0D548844209D10121C80401F008
:10201000DBF900214FF4002001F0D6F963E0D0484D
:10202000844209D10121080501F0CEF900214FF4C5
:10203000801001F0C9F956E0CA48844209D1012153
:10204000480501F0C1F900214FF4001001F0BCF97E
:1020500049E0C548844208D10121402001F0C1F97E
:102060000021402001F0BDF93DE0C048844208D184
:102070000121802001F0B5F90021802001F0B1F9A3
:1020800031E0BB48844208D10121801501F0A9F953
:102090000021A01501F0A5F925E0B648844209D138
:1020A0000121080401F090F900214FF4803001F083
:1020B0008BF918E0B048844209D10121480401F0AD
:1020C00083F900214FF4003001F07EF90BE0AB48BA
:1020D000844208D10121880401F076F900214FF4EF
:1020E000802001F071F910BD00220288944B9842C3
:1020F0000ED0994B98420BD0B0F1804F08D0914B45
:10210000984205D0904B984202D0904B984204D10F
:102110004FF68F731A404B881A438D4B984207D065
:102120008C4B984204D04FF6FF431A40CB881A4399
:1021300002808B8883850B880385814B98420BD066
:10214000854B984208D08B4B984205D08A4B9842D9
:1021500002D08A4B984201D10B7A038601238382F5
:10216000704770B5002400220023058C4FF6FE76E0
:1021700035400584028C8388048B4FF68F752C4084
:10218000B51E2C400D882C43751E2A400D892A430C
:102190004D882A436A4DA8420BD06F4DA84208D003
:1021A000744DA84205D0744DA84202D0734DA84288
:1021B00013D14FF6F7752A404D892A434FF6FB7528
:1021C0002A408D882A434FF6FF652B404FF6FF5576
:1021D0002B408D892B43CD892B4383800483CD886D
:1021E0008586028470BD70B5002400220023058C12
:1021F0004FF6EF7635400584028C8388048B48F6D1
:10220000FF752C404FF6FF452C400D884FF6FF76AA
:1022100006EA05252C434FF6DF752A400D8906EAAC
:1022200005152A434D8806EA05152A43444DA84260
:1022300002D0494DA8421DD14FF67F752A404D89E5
:102240004FF6FF7606EA05152A434FF6BF752A407A
:102250008D8806EA05152A434FF6FF352B404FF2CD
:10226000FF752B408D8906EA85052B43CD8906EA4B
:1022700085052B4383800483CD880587028470BD48
:1022800070B5002400220023058C4FF6FF66354010
:102290000584028C8388848B4FF68F752C404FF613
:1022A000FC752C400D882C434FF6FF552A400D89B4
:1022B0004FF6FF7606EA05252A434D8806EA0525EE
:1022C0002A431F4DA84202D0234DA8421DD14FF2F0
:1022D000FF752A404D894FF6FF7606EA05252A4309
:1022E0004FF6FF352A408D8806EA05252A434EF62B
:1022F000FF752B404DF6FF752B408D8906EA0515BD
:102300002B43CD8906EA05152B4383808483CD8832
:102310008587028470BD70B5002200230024058CDF
:102320004EF6FF7635400584038C8488828B48F610
:10233000FF752A404FF6FF452A400D8820E0000037
:10234000002C01400004004000080040000C004048
:10235000001000400014004000340140004C0140D7
:10236000005001400054014000180040001C004093
:10237000002000400040014000440140004801406E
:102380004FF6FF7606EA05252A434DF6FF752B40EA
:102390000D8906EA05352B434D8806EA05352B43A2
:1023A000FA4DA84202D0FA4DA84208D14BF6FF756B
:1023B0002C408D894FF6FF7606EA85152C438480E4
:1023C0008283CD88A0F84050038470BD828B4FF289
:1023D000FF331A408283828B4FF6FF7303EA012397
:1023E0001A4382837047F0B50C461546002200213F
:1023F0000026078C4EF6FF7C07EA0C070784828BC9
:10240000018C4FF6FF7707EA043640F6FF473A4063
:102410004FF6FF7707EA05273A434FF6FF7707EABB
:1024200003373A43D94FB8420ED0D94FB8420BD0F8
:10243000B0F1804F08D0D74FB84205D0D64FB84240
:1024400002D0D64FB84206D14DF6FF77394046F458
:102450008057394305E047F6FF57394044F4805729
:10246000394382830184F0BD828B4FF6F3731A40A7
:102470008283828B0A4382837047F0B50C461546EF
:10248000002200210026078C4FF6FF6C07EA0C079C
:102490000784828B018C4FF6FF7707EA04264FF6FC
:1024A0000C773A404FF6FF7707EA03172F433A437A
:1024B000B64FB8420ED0B64FB8420BD0B0F1804FF5
:1024C00008D0B44FB84205D0B34FB84202D0B34F92
:1024D000B84206D14FF6FF57394046F4807739436A
:1024E00005E04FF2FF57394044F480773943828347
:1024F0000184F0BD028B4FF2FF331A400283028B3E
:102500004FF6FF7303EA01231A4302837047F0B5C5
:102510000C461546002200210026078C4FF6EF7C62
:1025200007EA0C070784028B018C4FF6FF7707EA56
:10253000041640F6FF473A404FF6FF7707EA0337A5
:102540003A434FF6FF7707EA05273A438F4FB842E1
:102550000ED08F4FB8420BD0B0F1804F08D08D4FC6
:10256000B84205D08C4FB84202D08C4FB84206D149
:102570004FF6DF77394046F01007394305E04FF654
:102580005F77394044F01007394302830184F0BD7E
:10259000028B4FF6F3731A400283028B0A430283C5
:1025A0007047F0B50C46154600220021068C4FF608
:1025B000FE773E400684028B018C4FF60C7632404B
:1025C0007E1C06EA03162E433243704EB0420ED0F4
:1025D0006F4EB0420BD0B0F1804F08D06D4EB0427C
:1025E00005D06D4EB04202D06C4EB04206D14FF6CF
:1025F000FD76314044F00106314305E04FF6F576B3
:10260000314044F00106314302830184F0BD70B5CE
:1026100005460C465D4885420ED05D4885420BD08C
:10262000B5F1804F08D05B48854205D05A488542B5
:1026300002D05A48854200D100E000BF208850B93E
:102640002389A28861882846FFF7ABFFE1882846E6
:10265000FFF79EFF25E0208804280AD12389A2885D
:1026600061882846FFF753FFE1882846FFF742FFBD
:1026700017E0208808280AD12389A2886188284683
:10268000FFF7FBFEE1882846FFF7EEFE09E023890D
:10269000A28861882846FFF7A6FEE1882846FFF752
:1026A00095FE70BD2DE9F04105460C460026012738
:1026B000608808B9022600E00026A088012801D120
:1026C000022700E001272088A0B92389A288618819
:1026D0002846FFF766FFE1882846FFF759FF238960
:1026E0003A4631462846FFF712FFE1882846FFF7B1
:1026F00001FF13E02389A28861882846FFF707FFBE
:10270000E1882846FFF7F6FE23893A4631462846F7
:10271000FFF747FFE1882846FFF73AFFBDE8F08161
:102720000A884B881A438B881A43CB881A430B8933
:102730001A434B891A438B891A43A0F844207047E7
:102740004FF6FF71818000210180C18041800172BC
:1027500070470021018041808180C18001814181D9
:102760008181C181704700210180418001218180E8
:102770000021C1800181704700210180418081805A
:10278000C18001814181818170470000002C01409E
:10279000003401400004004000080040000C0040EC
:1027A00021B1028842F00102028004E002884FF663
:1027B000FE731A400280704731B1B0F8442042F4F1
:1027C0000042A0F8442005E0B0F84420C2F30E0215
:1027D000A0F8442070471AB183890B43838102E03B
:1027E00083898B43838170478182704741EA02036A
:1027F000A0F8483070471AB183890B43838102E007
:1028000083898B438381704701894FF6F8721140A9
:10281000018170470A46002101894FF68F731940E4
:1028200011430181704730B504460D4629462046C4
:10283000FFF7F0FF208940F00700208130BD2DE92F
:10284000F04104460D4616461F46602D06D13B4614
:10285000012231462046FFF75AFE05E03B460122A1
:1028600031462046FFF79DFE29462046FFF7D2FF5E
:10287000208940F007002081BDE8F08130B50C468A
:1028800000210189C9B24FF6FF7505EA03251543FA
:1028900025432943018130BD2DE9F04105460E460F
:1028A00017469846002443463A4631462846FFF7E5
:1028B000E5FF2C894FF6F870044044F007044FF60A
:1028C0008F70044044F070042C81BDE8F081F0B5B5
:1028D00004460D4616461F463B46324629462046CC
:1028E000FFF7CCFF208940F480402081F0BD0185B6
:1028F000828270470A46002101884FF68F73194083
:10290000114301807047F0B50C4615461E46002164
:10291000002200230189028B038C4FF6F87739409F
:1029200021434FF6FC473A4040F201173A434FF635
:10293000DD773B404FF6FF7707EA06172F433B430F
:10294000018102830384F0BD0A460021018B4FF60A
:102950008F7319401143018370470A460021018B90
:1029600048F6FF7319404FF6FF7303EA0223194339
:10297000018370470A460021818B4FF68F731940FF
:102980001143818370470A460021818B48F6FF730B
:1029900019404FF6FF7303EA0223194381837047FE
:1029A00021B1028842F08002028004E002884FF6E2
:1029B0007F731A400280704721B1828842F004027E
:1029C000828004E082884FF6FB731A408280704751
:1029D00021B1828842F00802828004E082884FF6AA
:1029E000F7731A408280704721B1828842F0010259
:1029F000828004E082884FF6FE731A40828070471E
:102A00000A460021018B4FF6F773194011430183E9
:102A100070470A460021018B4FF2FF7319404FF6B1
:102A2000FF7303EA02231943018370470A4600211A
:102A3000818B4FF6F77319401143818370470A4623
:102A40000021818B4FF2FF7319404FF6FF7303EAA9
:102A500002231943818370470A460021018B4FF6F8
:102A6000FB7319401143018370470A460021018B13
:102A70004FF6FF3319404FF6FF7303EA0223194361
:102A8000018370470A460021818B4FF6FB73194082
:102A90001143818370470A460021818B4FF6FF3333
:102AA00019404FF6FF7303EA0223194381837047ED
:102AB0000A460021018B4FF67F73194011430183B1
:102AC00070470A460021018BC1F30E014FF6FF73D8
:102AD00003EA02231943018370470A460021818BD0
:102AE0004FF67F7319401143818370470A460021D6
:102AF000818BC1F30E014FF6FF7303EA02231943E2
:102B0000818370470A460021018C4FF6FD731940FE
:102B10001143018470470A460021018C4FF6F77378
:102B200019401143018470470A460021018C4FF679
:102B3000DF7319404FF6FF7303EA02131943018450
:102B400070470A460021018C4FF67F7319404FF6FB
:102B5000FF7303EA02131943018470470A460021F8
:102B6000018C4FF6FF5319404FF6FF7303EA02231F
:102B70001943018470470A460021018C4FF2FF730C
:102B800019404FF6FF7303EA02231943018470478B
:102B90000A460021018C4DF6FF7319404FF6FF7372
:102BA00003EA023319430184704730B5002301243E
:102BB0008C40A3B2048C9C430484048C02FA01F57B
:102BC000ADB22C43048430BD30B5002304248C40C6
:102BD000A3B2048C9C430484048C02FA01F5ADB2C8
:102BE0002C43048430BD70B50346002000241846F1
:102BF000183001258D40ACB21D8CA5431D8409B150
:102C0000082909D100EB6100056825F07005056011
:102C10000568154305600EE00D1FC5F34E052844F9
:102C2000056825F4E045056005684FF6FF7606EA7D
:102C300002263543056070BD21B1028842F00202D0
:102C4000028004E002884FF6FD731A40028070474C
:102C500021B1028842F00402028004E002884FF6AB
:102C6000FB731A400280704721B1828842F08002D3
:102C7000828004E082884FF67F731A40828070471A
:102C800002884FF6F7731A40028002880A430280D6
:102C9000704782884FF68F731A40828082880A4379
:102CA0008280704702894FF6F8731A4002810289C8
:102CB0000A430281704702894FF67F731A400281EE
:102CC00002890A4302817047818470478185704779
:102CD000818670470187704781877047A0F8401050
:102CE000704702884FF6FF431A40028002880A4369
:102CF000028070470146888E70470146088F7047F2
:102D00000146888F70470146B1F840007047014680
:102D1000888C70470146088D704702460020138A50
:102D20000B400BB1012000E000207047CA43028233
:102D3000704730B50246002000230024158A05EABA
:102D40000103958905EA010413B10CB1012000E0EB
:102D5000002030BDCA4302827047000010B504460F
:102D6000CC48844208D10121042000F02DFB002131
:102D7000042000F029FB46E0C748844208D1012125
:102D8000082000F021FB0021082000F01DFB3AE0A4
:102D9000C248844208D10121102000F015FB002117
:102DA000102000F011FB2EE0BD48844208D1012123
:102DB000202000F009FB0021202000F005FB22E08C
:102DC000B848844208D10121402000F0FDFA0021DA
:102DD000402000F0F9FA16E0B348844208D10121FE
:102DE000802000F0F1FA0021802000F0EDFA0AE0E6
:102DF000AE48844207D10121801500F0E5FA002198
:102E0000A01500F0E1FA10BD10B50121084600F050
:102E1000DBFA0021012000F0D7FA10BD2DE9F041C6
:102E2000024600250026002000230024002791F8F8
:102E300003C00CF00F0591F803C00CF0100CBCF1AE
:102E4000000F03D091F802C04CEA050591F800C0CC
:102E5000BCF1000F31D0146800202BE04FF0010CC2
:102E60000CFA00F3B1F800C00CEA03069E4220D130
:102E700083004FF00F0C0CFA03F7BC4305FA03FC78
:102E80004CEA040491F803C0BCF1280F06D14FF0BE
:102E9000010C0CFA00FCC2F814C00AE091F803C05F
:102EA000BCF1480F05D14FF0010C0CFA00FCC2F840
:102EB00010C0401C0828D1D31460B1F800C0BCF188
:102EC000FF0F34DD546800202EE000F1080C4FF0B5
:102ED000010808FA0CF3B1F800C00CEA03069E42A0
:102EE00021D183004FF00F0C0CFA03F7BC4305FA15
:102EF00003FC4CEA040491F803C0BCF1280F05D18F
:102F000000F1080C08FA0CF8C2F8148091F803C01C
:102F1000BCF1480F07D100F1080C4FF0010808FA86
:102F20000CF8C2F81080401C0828CED35460BDE8CD
:102F3000F0814FF6FF710180022181700421C17080
:102F400070470246002093680B400BB1012000E05F
:102F5000002070470146886880B270470246002012
:102F6000D3680B400BB1012000E000207047014600
:102F7000C86880B2704701617047416170470AB10B
:102F8000016100E041617047C16070474FF48032D9
:102F90000A43826181618261826982697047024667
:102FA0000020434B18684FF68073184040EA021027
:102FB00008433F4B186070473E49C8617047F0B501
:102FC0000A46002300240021002500F00046B6F147
:102FD000004F02D1364EF16901E0354E7168C0F301
:102FE000034583B200F44016B6F5401F08D121F026
:102FF00070612F4E766826F070662D4F7E6012E06D
:1030000000F48016B6F5801F06D1032606FA05F4F3
:10301000A14341F0706106E0460D360103FA06F661
:10302000B14341F0706122B1460D360103FA06F654
:10303000314300F00046B6F1004F02D11C4EF16161
:1030400001E01B4E7160F0BD30B500228B071C0FF4
:103050000F2303FA04F2164B08338C1053F8243074
:103060009343134C08348D1044F8253023468C10BC
:1030700053F824308C07240F00FA04F423430C4C3B
:1030800008348D1044F8253030BD0A49DC31086021
:103090007047000000080140000C01400010014092
:1030A0000014014000180140001C014000200140B4
:1030B0000000014000002042DF48006840F00100AD
:1030C000DD49086008464068DC490840DA49486044
:1030D00008460068DA490840D74908600846006891
:1030E00020F4802008600846406820F4FE00486014
:1030F0004FF41F0088607047CF49096821F4803180
:10310000CD4A11601146096821F480211160B0F5A3
:10311000803F03D0B0F5802F0ED106E0C649096884
:1031200041F48031C44A116007E0C349096841F4A1
:10313000A021C14A116000E000BF00BF704710B578
:1031400001460022002300204A11012A02D1BA4C74
:10315000236806E0022A02D1B74C236A01E0B64C8C
:10316000636A01F01F02012494401C400CB101204D
:1031700000E0002010BD38B500200090002400259C
:1031800000BF3120FFF7DBFF05460098401C009090
:103190000098B0F5A06F01D0002DF2D03120FFF7DC
:1031A000CEFF08B1012400E00024204638BD0146CE
:1031B0000020A14A106820F0F80040EAC100106029
:1031C0007047A04908607047024600209A4B586833
:1031D00020F47C1042EA01031843974B5860704773
:1031E00098490866704701460020934A506820F0CD
:1031F00003000843506070478F48406800F00C009F
:103200007047014600208C4A506820F0F0000843C7
:103210005060704701460020874A506820F4E06003
:1032200008435060704701460020834A506820F4EC
:10323000605040EAC1005060704729B17E4A527A1E
:1032400002437D4B5A7204E07B4A527A82437A4BA6
:103250005A7270477B49D831086070470146002098
:10326000754A506820F44040084350607047002180
:10327000714A20321170704A82F82010012802D061
:1032800004280AD104E001216B4A2032117005E0C4
:103290000521694A2032117000E000BF00BF70476D
:1032A0006949086070476449096A0143624A1162CA
:1032B0007047654944390860704730B500210022E5
:1032C000002400235C4D6D6805F00C0121B1042938
:1032D00005D0082923D105E05C4D056022E05B4D57
:1032E00005601FE0544D6D6805F47012524D6D6815
:1032F00005F48034022505EB92421CB9544D554328
:1033000005600BE04C4D6D6805F400351DB1504D66
:103310005543056002E04D4D5543056002E04B4DBD
:10332000056000BF00BF444D6D6805F0F00109095C
:10333000484D6B5C0568DD4045603F4D6D6805F4A8
:10334000E061090A434D6B5C4568DD4085603A4D9C
:103350006D6805F46051C90A3E4D6B5C4568DD40FF
:10336000C560354D6D6805F44041890B3A4D6B5C85
:10337000C568B5FBF3F5056130BD29B12E4A526928
:1033800002432D4B5A6104E02B4A526982432A4B77
:103390005A61704729B1284A92690243264B9A61C3
:1033A00004E0254A92698243234B9A61704729B110
:1033B000214AD2690243204BDA6104E01E4AD269F5
:1033C00082431D4BDA61704729B11B4AD268024320
:1033D000194BDA6004E0184AD2688243164BDA606F
:1033E000704729B1144A12690243134B1A6104E071
:1033F000114A12698243104B1A61704712494039D1
:10340000086070470F49C86470470B49C87170471E
:103410000948406A40F08070074948627047014699
:103420000020054A92680A400AB1012000E000200D
:103430007047014988727047001002400000FFF891
:10344000FFFFF6FE000042428004424200127A0072
:1034500000093D009A000020AA00002010B5044693
:10346000FB48844209D101218803FFF7ADFF002109
:103470004FF48040FFF7A8FF32E0F648844209D1BC
:1034800001214804FFF7ADFF00214FF40030FFF7A2
:10349000A8FF25E0F048844209D101218804FFF704
:1034A000A0FF00214FF48020FFF79BFF18E0EB48BE
:1034B000844209D10121C804FFF793FF00214FF492
:1034C0000020FFF78EFF0BE0E548844208D1012180
:1034D0000805FFF786FF00214FF48010FFF781FFFA
:1034E00010BD2DE9F04786B005460E460024A246E1
:1034F00000BFA1460027B08900B100BF2F462C8A2B
:103500004CF6FF700440F08804432C82AC894EF6E0
:10351000F3100440B088318908437189084304439B
:10352000AC81AC8A4FF6FF400440B0890443AC82C2
:1035300001A8FFF7C2FEC648874202D1DDF810A0FD
:1035400001E0DDF80CA0A88900F4004040B10AEBCE
:10355000CA0000EB0A1031684900B0FBF1F807E03F
:103560000AEBCA0000EB0A1031688900B0FBF1F8E1
:103570006420B8FBF0F004012009642101FB1089EC
:10358000A88900F4004040B1322000EBC900B0FB34
:10359000F1F000F00700044308E0322000EB0910CE
:1035A0006421B0FBF1F000F00F0004432C8106B061
:1035B000BDE8F0874FF41651016000218180C18081
:1035C00001810C21418100218181704710B50246A3
:1035D0000020108A4FF2FF0318400B884C882343C9
:1035E0008C882343CC8823431843108210BD0021CC
:1035F000018041808180C180704721B1828942F47D
:103600000052828104E082894DF6FF731A40828164
:103610007047F0B50346002400260025002040F640
:103620006A17B94200D100BF1846C1F3421401F035
:103630001F06012707FA06F5012C01D10C3004E022
:10364000022C01D1103000E014301AB107682F436A
:10365000076002E00768AF430760F0BD1AB1838AD4
:103660000B43838202E0838A8B4383827047028A02
:103670004FF6F0731A400282028A0A4302827047B0
:1036800082894FF2FF731A40828182890A438281C4
:10369000704721B1828942F00202828104E082896E
:1036A0004FF6FD731A4082817047028A4FF6DF732E
:1036B0001A400282028A0A430282704721B1028ABA
:1036C00042F48042028204E0028A4BF6FF731A4001
:1036D00002827047C1F308028280704701468888E1
:1036E000C0F308007047818941F001018181704772
:1036F000028BD2B20283028B42EA0122028370471C
:10370000028B02F47F420283028B0A4302837047DA
:1037100021B1828A42F02002828204E0828A4FF63E
:10372000DF731A408282704721B1828A42F0100210
:10373000828204E0828A4FF6EF731A4082827047D9
:1037400021B1828A42F00802828204E0828A4FF626
:10375000F7731A408282704721B1828942F4004295
:10376000828103E08289C2F30E028281704721B117
:10377000828A42F40062828204E0828A4FF2FF73FE
:103780001A4082827047828A4FF6FB731A40828207
:10379000828A0A438282704721B1828A42F0020201
:1037A000828204E0828A4FF6FD731A40828270475B
:1037B00002460020B1F5007F00D100BF13880B4006
:1037C0000BB1012000E00020704701F40072B2F557
:1037D000007F00D100BFCA430280704770B5024627
:1037E000002400230025002040F66A16B14200D1D3
:1037F00000BFC1F3421501F01F03012606FA03F3CF
:10380000012D02D19689334006E0022D02D1168A9D
:10381000334001E0968A33400C12012606FA04F484
:103820001688344013B10CB1012000E0002070BDB7
:1038300010B50022002340F66A14A14200D100BF57
:103840000A1201249440A3B2DC43048010BD00009E
:10385000003801400044004000480040004C004057
:103860000050004031490143314A1160704770B542
:10387000002100230F22C47804B32D4C246804F4E3
:10388000E064C4F5E064210AC1F10403CA4044784D
:1038900004FA03F18478144021430901254C067889
:1038A000A155047804F01F050124AC4005786D1182
:1038B000AD0005F1E025C5F8004109E0047804F009
:1038C0001F050124AC401C4D0678761145F82640B2
:1038D00070BD1A4A0A400243154B1B1F1A607047FD
:1038E00039B1134A121D12680243114B1B1D1A6095
:1038F00006E00F4A121D126882430D4B1B1D1A6011
:103900007047042808D14FF0E021096941F0040113
:103910004FF0E022116107E04FF0E021096921F04A
:1039200004014FF0E0221161704700000000FA0529
:103930000CED00E000E400E080E100E080FFFF1F0C
:10394000704700000FB4044910B503AA029800F0B4
:10395000D3F810BC5DF814FB940000202DE9F04171
:103960000E460446002020622046E168884730B3B6
:10397000252805D0D4E901219047206A401CF2E7B0
:10398000E168204600278847050018D0A5F14100CE
:10399000192802D820354FF40067324629462046C0
:1039A0002760FCF7FFFB40B1012804D0F61D26F08C
:1039B00007060836D8E7361DD6E72846DAE7206A34
:1039C000BDE8F0812DE9F041064600241068752914
:1039D000314616A510D0AFF30080002802DA40422D
:1039E00013A507E031688A0701D512A502E049074F
:1039F00004D511A5012401E0AFF3008000210A22C3
:103A000006F1240709E0B0FBF2FCB0FBF2F302FB85
:103A10001C00303078541846491C0028F3D1234646
:103A20002A463046BDE8F04100F00CB80000000026
:103A30002D0000002B0000002000000070477047A0
:103A4000704770472DE9F0470D4699469246044667
:103A500000F124080168880604D5E06921F010010E
:103A6000216000E00120A84201DD471B00E00027A3
:103A7000A1697A1902EB0900081AA0612078C00632
:103A800002D42046AFF30080002608E0D4E90121EB
:103A90001AF806009047206A401C761C20624E45AA
:103AA000F4DB2078C0060AD52046AFF3008006E09C
:103AB000D4E9012130209047206A401C2062381E42
:103AC000A7F10107F4DC07E0D4E9012118F80500AB
:103AD0009047206A401C2062281EA5F10105F3DCF6
:103AE0002046AFF300802078000602D50220BDE812
:103AF000F0870120FBE70000074B70B50D467B44C3
:103B000000F011F80446284600F020F810B14FF0FC
:103B1000FF3070BD204670BDC5E2FFFF01694A1C41
:103B200002610878704700B58FB0CDE901310021FE
:103B3000059105497944CDE9031011466846FFF720
:103B40000DFF0FB000BD0000E5FFFFFF007B00F0A0
:103B500080007047754600F029F8AE4605006946BA
:103B6000534620F00700854618B020B5FEF7D6F979
:103B7000BDE820404FF000064FF000074FF000086E
:103B80004FF0000B21F00701AC46ACE8C009ACE8EF
:103B9000C009ACE8C009ACE8C0098D4670470446CE
:103BA000AFF300802046FCF70FFB00000048704791
:103BB0009C02002090EA010F48BF81F0004100F113
:103BC000DE81421A3CBF801A89184FEAD0524FF06A
:103BD0007F4C1CEA410FA2EBD15318BF9CEA026F45
:103BE00000F03B804FF0004C4CEA00204CEA0121F1
:103BF00021FA03FC10EB0C0C1ED202F1FF325FEA3B
:103C00001C2040EBC25038BF70471CF07F0F4FEABA
:103C1000400C18BFBCF17F4F38BF7047C3F1200381
:103C2000994008BF20F00100BCF17F4F38BF7047BA
:103C3000A0F1C04000F05BB94FEA3C00000A40EB45
:103C4000C25028BF1CF0FF0F4FEA400CE6D018BF4F
:103C5000BCF17F4F38BF7047EAE79CEA026F05D09E
:103C600010EA5C0F08BF00F00040704710B500F08C
:103C7000F8F800BF64FBBE3E401058BFC0F14040A2
:103C8000491058BFC1F140418142EFF300807047B5
:103C900041000B0ED3F19E0208D950F400034FEA05
:103CA000032323FA02F048BF4042704710B500F0EA
:103CB000D8F800BF49922480002070476FF000427E
:103CC00082EA20007047000010F0004148BF4042E7
:103CD000B0FA80F310FA03F2C3F19D030BD051EA5E
:103CE000C35101EB1220530638BF704700F10100A9
:103CF00008BF20F00100704750EA010C00F113806A
:103D00001CF5000F58BFBCF5000F01D48842704766
:103D100007D710F5000F58BF11F5000F15D48842D2
:103D20007047894270471CF5000F04D5BCF5000FA1
:103D3000F7D5814270474FF0807C1CEB400F38BFB5
:103D40001CEB410F01D28142704710B500F089F899
:103D5000922449004FF000504FF08051FFF78CBF84
:103D60004FF47F0C1CEAD0121EBF1CEAD11392EA5A
:103D70000C0F93EA0C0F00F0478090EA010F48BF48
:103D800042F480724FF0004C4CEA00204CEA0121D2
:103D900002EB0302A0FB0113A2F50002002918BFE9
:103DA00043F001035B0028BF4FEA330342EB22429A
:103DB0005FEA132C4CEBC2502EBFBCEB436FB2F545
:103DC0007C0F70474FEA036CBCF1004F08BF20F036
:103DD0000100B2F57C0F38BF70470BD582F0FF02AF
:103DE00012F5803FC8BF704700F1C040D8BF00F057
:103DF0000040704700F5000C5FEA4C0C48BF70476C
:103E0000B0F1C04000F073B890EA010F0CEAD11392
:103E100048BF42F48072624538BF634504D280EAED
:103E2000010000F00040704710B500F01AF800BF24
:103E30008900013E00F007B800F009B85FEA410CC4
:103E40005FEA1C6C08D080EA010000F050B85FEA1D
:103E5000400C5FEA1C6CF6D14FF00040A0F58000EA
:103E600070470EF1020E2EF0030E5EF8044B244252
:103E700004D44FEA4102B2F17F4F11D84FEA400318
:103E8000B3F17F4F0CD80ED14FEAD07CB2F17F4F07
:103E90000CEB4C0C0CF1020C08BF4CEBD17C04E099
:103EA0004FF0080C01E04FEAD17C0CEB4C0324FAF4
:103EB00003F404F00704B4F1040C06D20EEB840CF6
:103EC000BDE810404CF0010C6047DFE80CF007083B
:103ED00002024FF00040A0F5800010BD08464200ED
:103EE00018BFD2F1807288BF00F0004010BDFF21E2
:103EF00041EAD050C005704751EA000C00F1138030
:103F00001CF5000F58BFBCF5000F01D4814270476B
:103F100007D711F5000F58BF10F5000F15D48142D7
:103F20007047894270471CF5000F04D5BCF5000F9F
:103F3000F7D5884270474FF0807C1CEB410F38BFAB
:103F40001CEB400F01D28842704780EA010081EAF1
:103F5000000180EA0100FFF7F8BE80F0004090EA1F
:103F6000010F7FF52EAE81F0004100F008B800008F
:103F700090EA010F48BF81F000413FF522AE421A9E
:103F800004D882F00042A0EB020011444FEAD05264
:103F90004FF07F4C1CEA410FA2EBD15318BF9CEAB3
:103FA000026F4AD04FF0004C4CEA00204CEA01214D
:103FB00021FA03FCB0EB0C0C0FD412F0FE0F36D03C
:103FC0005FEA4C001DD5001240EBC25038BF70476D
:103FD0001CF03F0F18BF70470BE0A2F101025FEA2F
:103FE0001C2040EBC25038BF70471CF07F0F18BF39
:103FF0007047C3F12003994014BF401E20F0010018
:10400000704780084FEA122308BF7047B0FA80FC5F
:10401000A2EB0C02CCF1280C60FA0CF093EA122F00
:1040200004BF00EBC25070474FEAC3707047130AD9
:104030005FEADC1008BF7047F6E79CEA026F04D025
:1040400010EA5C0F08BF0020704710B5FFF709FFAA
:1040500040DFF63E81F000407047000030303031E4
:1040600000000000303030320000000030303033CB
:1040700000000000303030340000000030303035B7
:1040800000000000303030360000000030303037A3
:1040900000000000B440000800000020B000000054
:1040A0006C01000864410008B000002050080000C6
:1040B000880100080000000000000000000000006F
:1040C00000000000000000005C40000864400008A0
:1040D0006C400008744000087C40000884400008E0
:1040E0008C400008000000000000000000A24A040C
:1040F0000000000000000000010203040607080998
:104100000100000000C0604400000000000000004A
:10411000000000000000000000000000000000009F
:10412000000000000000000000000000000000008F
:10413000000000000000000000000000000000007F
:10414000000000000000000000000000000000006F
:104150000000010203040102030406070809020427
:04416000060800004D
:0400000508000131BD
:00000001FF
